{
  "contractName": "ItemManager",
  "abi": [
    {
      "anonymous": false,
      "inputs": [
        {
          "indexed": false,
          "internalType": "uint256",
          "name": "_itemIndex",
          "type": "uint256"
        },
        {
          "indexed": false,
          "internalType": "uint256",
          "name": "_step",
          "type": "uint256"
        },
        {
          "indexed": false,
          "internalType": "address",
          "name": "_address",
          "type": "address"
        }
      ],
      "name": "SupplyChainStep",
      "type": "event"
    },
    {
      "inputs": [],
      "name": "_owner",
      "outputs": [
        {
          "internalType": "address",
          "name": "",
          "type": "address"
        }
      ],
      "stateMutability": "view",
      "type": "function",
      "constant": true
    },
    {
      "inputs": [],
      "name": "isOwner",
      "outputs": [
        {
          "internalType": "bool",
          "name": "",
          "type": "bool"
        }
      ],
      "stateMutability": "view",
      "type": "function",
      "constant": true
    },
    {
      "inputs": [
        {
          "internalType": "uint256",
          "name": "",
          "type": "uint256"
        }
      ],
      "name": "items",
      "outputs": [
        {
          "internalType": "contract Item",
          "name": "_item",
          "type": "address"
        },
        {
          "internalType": "enum ItemManager.SupplyChainSteps",
          "name": "_step",
          "type": "uint8"
        },
        {
          "internalType": "string",
          "name": "_identifier",
          "type": "string"
        },
        {
          "internalType": "uint256",
          "name": "itemPrice",
          "type": "uint256"
        }
      ],
      "stateMutability": "view",
      "type": "function",
      "constant": true
    },
    {
      "inputs": [
        {
          "internalType": "string",
          "name": "_identifier",
          "type": "string"
        },
        {
          "internalType": "uint256",
          "name": "_priceInWei",
          "type": "uint256"
        }
      ],
      "name": "createItem",
      "outputs": [],
      "stateMutability": "nonpayable",
      "type": "function"
    },
    {
      "inputs": [
        {
          "internalType": "uint256",
          "name": "_index",
          "type": "uint256"
        }
      ],
      "name": "triggerPayment",
      "outputs": [],
      "stateMutability": "payable",
      "type": "function",
      "payable": true
    },
    {
      "inputs": [
        {
          "internalType": "uint256",
          "name": "_index",
          "type": "uint256"
        }
      ],
      "name": "triggerDelivery",
      "outputs": [],
      "stateMutability": "nonpayable",
      "type": "function"
    }
  ],
  "bytecode": "0x608060405234801561001057600080fd5b50336000806101000a81548173ffffffffffffffffffffffffffffffffffffffff021916908373ffffffffffffffffffffffffffffffffffffffff160217905550611a9c806100606000396000f3fe6080604052600436106200005c5760003560e01c8063800fb83f14620000615780638c55174214620000815780638f32d59b14620000af578063b2bdfa7b14620000df578063bfb231d2146200010f578063cd31831e1462000156575b600080fd5b6200007f600480360381019062000079919062000a87565b62000184565b005b3480156200008e57600080fd5b50620000ad6004803603810190620000a7919062000c1b565b62000435565b005b348015620000bc57600080fd5b50620000c762000643565b604051620000d6919062000c9e565b60405180910390f35b348015620000ec57600080fd5b50620000f76200069a565b60405162000106919062000d00565b60405180910390f35b3480156200011c57600080fd5b506200013b600480360381019062000135919062000a87565b620006be565b6040516200014d949392919062000eac565b60405180910390f35b3480156200016357600080fd5b506200018260048036038101906200017c919062000a87565b620007ab565b005b60006001600083815260200190815260200160002060000160009054906101000a900473ffffffffffffffffffffffffffffffffffffffff1690503373ffffffffffffffffffffffffffffffffffffffff168173ffffffffffffffffffffffffffffffffffffffff161462000230576040517f08c379a0000000000000000000000000000000000000000000000000000000008152600401620002279062000f76565b60405180910390fd5b348173ffffffffffffffffffffffffffffffffffffffff16633c8da5886040518163ffffffff1660e01b8152600401602060405180830381865afa1580156200027d573d6000803e3d6000fd5b505050506040513d601f19601f82011682018060405250810190620002a3919062000faf565b14620002e6576040517f08c379a0000000000000000000000000000000000000000000000000000000008152600401620002dd9062001031565b60405180910390fd5b60006002811115620002fd57620002fc62000d88565b5b60016000600254815260200190815260200160002060000160149054906101000a900460ff16600281111562000338576200033762000d88565b5b146200037b576040517f08c379a00000000000000000000000000000000000000000000000000000000081526004016200037290620010c9565b60405180910390fd5b600180600084815260200190815260200160002060000160146101000a81548160ff02191690836002811115620003b757620003b662000d88565b5b02179055507fa4035636e99f06b7651a604c1019fa4e8779fe68ef27eeb74dff2de348f6199b826001600085815260200190815260200160002060000160149054906101000a900460ff16600281111562000417576200041662000d88565b5b836040516200042993929190620010eb565b60405180910390a15050565b6200043f62000643565b62000481576040517f08c379a0000000000000000000000000000000000000000000000000000000008152600401620004789062001178565b60405180910390fd5b6000308260025460405162000496906200097a565b620004a493929190620011d3565b604051809103906000f080158015620004c1573d6000803e3d6000fd5b5090508060016000600254815260200190815260200160002060000160006101000a81548173ffffffffffffffffffffffffffffffffffffffff021916908373ffffffffffffffffffffffffffffffffffffffff1602179055508160016000600254815260200190815260200160002060020181905550600060016000600254815260200190815260200160002060000160146101000a81548160ff0219169083600281111562000577576200057662000d88565b5b0217905550826001600060025481526020019081526020016000206001019080519060200190620005aa92919062000988565b507fa4035636e99f06b7651a604c1019fa4e8779fe68ef27eeb74dff2de348f6199b60025460016000600254815260200190815260200160002060000160149054906101000a900460ff1660028111156200060a576200060962000d88565b5b836040516200061c93929190620010eb565b60405180910390a16002600081548092919062000639906200123f565b9190505550505050565b60008060009054906101000a900473ffffffffffffffffffffffffffffffffffffffff1673ffffffffffffffffffffffffffffffffffffffff163373ffffffffffffffffffffffffffffffffffffffff1614905090565b60008054906101000a900473ffffffffffffffffffffffffffffffffffffffff1681565b60016020528060005260406000206000915090508060000160009054906101000a900473ffffffffffffffffffffffffffffffffffffffff16908060000160149054906101000a900460ff16908060010180546200071c90620012bc565b80601f01602080910402602001604051908101604052809291908181526020018280546200074a90620012bc565b80156200079b5780601f106200076f576101008083540402835291602001916200079b565b820191906000526020600020905b8154815290600101906020018083116200077d57829003601f168201915b5050505050908060020154905084565b620007b562000643565b620007f7576040517f08c379a0000000000000000000000000000000000000000000000000000000008152600401620007ee9062001178565b60405180910390fd5b600160028111156200080e576200080d62000d88565b5b6001600083815260200190815260200160002060000160149054906101000a900460ff16600281111562000847576200084662000d88565b5b146200088a576040517f08c379a00000000000000000000000000000000000000000000000000000000081526004016200088190620010c9565b60405180910390fd5b60026001600083815260200190815260200160002060000160146101000a81548160ff02191690836002811115620008c757620008c662000d88565b5b02179055507fa4035636e99f06b7651a604c1019fa4e8779fe68ef27eeb74dff2de348f6199b816001600084815260200190815260200160002060000160149054906101000a900460ff16600281111562000927576200092662000d88565b5b6001600085815260200190815260200160002060000160009054906101000a900473ffffffffffffffffffffffffffffffffffffffff166040516200096f93929190620010eb565b60405180910390a150565b61077480620012f383390190565b8280546200099690620012bc565b90600052602060002090601f016020900481019282620009ba576000855562000a06565b82601f10620009d557805160ff191683800117855562000a06565b8280016001018555821562000a06579182015b8281111562000a05578251825591602001919060010190620009e8565b5b50905062000a15919062000a19565b5090565b5b8082111562000a3457600081600090555060010162000a1a565b5090565b6000604051905090565b600080fd5b600080fd5b6000819050919050565b62000a618162000a4c565b811462000a6d57600080fd5b50565b60008135905062000a818162000a56565b92915050565b60006020828403121562000aa05762000a9f62000a42565b5b600062000ab08482850162000a70565b91505092915050565b600080fd5b600080fd5b6000601f19601f8301169050919050565b7f4e487b7100000000000000000000000000000000000000000000000000000000600052604160045260246000fd5b62000b0e8262000ac3565b810181811067ffffffffffffffff8211171562000b305762000b2f62000ad4565b5b80604052505050565b600062000b4562000a38565b905062000b53828262000b03565b919050565b600067ffffffffffffffff82111562000b765762000b7562000ad4565b5b62000b818262000ac3565b9050602081019050919050565b82818337600083830152505050565b600062000bb462000bae8462000b58565b62000b39565b90508281526020810184848401111562000bd35762000bd262000abe565b5b62000be084828562000b8e565b509392505050565b600082601f83011262000c005762000bff62000ab9565b5b813562000c1284826020860162000b9d565b91505092915050565b6000806040838503121562000c355762000c3462000a42565b5b600083013567ffffffffffffffff81111562000c565762000c5562000a47565b5b62000c648582860162000be8565b925050602062000c778582860162000a70565b9150509250929050565b60008115159050919050565b62000c988162000c81565b82525050565b600060208201905062000cb5600083018462000c8d565b92915050565b600073ffffffffffffffffffffffffffffffffffffffff82169050919050565b600062000ce88262000cbb565b9050919050565b62000cfa8162000cdb565b82525050565b600060208201905062000d17600083018462000cef565b92915050565b6000819050919050565b600062000d4862000d4262000d3c8462000cbb565b62000d1d565b62000cbb565b9050919050565b600062000d5c8262000d27565b9050919050565b600062000d708262000d4f565b9050919050565b62000d828162000d63565b82525050565b7f4e487b7100000000000000000000000000000000000000000000000000000000600052602160045260246000fd5b6003811062000dcb5762000dca62000d88565b5b50565b600081905062000dde8262000db7565b919050565b600062000df08262000dce565b9050919050565b62000e028162000de3565b82525050565b600081519050919050565b600082825260208201905092915050565b60005b8381101562000e4457808201518184015260208101905062000e27565b8381111562000e54576000848401525b50505050565b600062000e678262000e08565b62000e73818562000e13565b935062000e8581856020860162000e24565b62000e908162000ac3565b840191505092915050565b62000ea68162000a4c565b82525050565b600060808201905062000ec3600083018762000d77565b62000ed2602083018662000df7565b818103604083015262000ee6818562000e5a565b905062000ef7606083018462000e9b565b95945050505050565b7f4f6e6c79206974656d732061726520616c6c6f77656420746f2075706461746560008201527f207468656d73656c766573000000000000000000000000000000000000000000602082015250565b600062000f5e602b8362000e13565b915062000f6b8262000f00565b604082019050919050565b6000602082019050818103600083015262000f918162000f4f565b9050919050565b60008151905062000fa98162000a56565b92915050565b60006020828403121562000fc85762000fc762000a42565b5b600062000fd88482850162000f98565b91505092915050565b7f4e6f742066756c6c792070616964207965740000000000000000000000000000600082015250565b60006200101960128362000e13565b9150620010268262000fe1565b602082019050919050565b600060208201905081810360008301526200104c816200100a565b9050919050565b7f4974656d206973206675727468657220696e2074686520737570706c7920636860008201527f61696e0000000000000000000000000000000000000000000000000000000000602082015250565b6000620010b160238362000e13565b9150620010be8262001053565b604082019050919050565b60006020820190508181036000830152620010e481620010a2565b9050919050565b600060608201905062001102600083018662000e9b565b62001111602083018562000e9b565b62001120604083018462000cef565b949350505050565b7f4f776e61626c653a2063616c6c6572206973206e6f7420746865206f776e6572600082015250565b60006200116060208362000e13565b91506200116d8262001128565b602082019050919050565b60006020820190508181036000830152620011938162001151565b9050919050565b6000620011a78262000d27565b9050919050565b6000620011bb826200119a565b9050919050565b620011cd81620011ae565b82525050565b6000606082019050620011ea6000830186620011c2565b620011f9602083018562000e9b565b62001208604083018462000e9b565b949350505050565b7f4e487b7100000000000000000000000000000000000000000000000000000000600052601160045260246000fd5b60006200124c8262000a4c565b91507fffffffffffffffffffffffffffffffffffffffffffffffffffffffffffffffff82141562001282576200128162001210565b5b600182019050919050565b7f4e487b7100000000000000000000000000000000000000000000000000000000600052602260045260246000fd5b60006002820490506001821680620012d557607f821691505b60208210811415620012ec57620012eb6200128d565b5b5091905056fe608060405234801561001057600080fd5b5060405161077438038061077483398181016040528101906100329190610134565b816000819055508060028190555082600360006101000a81548173ffffffffffffffffffffffffffffffffffffffff021916908373ffffffffffffffffffffffffffffffffffffffff160217905550505050610187565b600080fd5b600073ffffffffffffffffffffffffffffffffffffffff82169050919050565b60006100b98261008e565b9050919050565b60006100cb826100ae565b9050919050565b6100db816100c0565b81146100e657600080fd5b50565b6000815190506100f8816100d2565b92915050565b6000819050919050565b610111816100fe565b811461011c57600080fd5b50565b60008151905061012e81610108565b92915050565b60008060006060848603121561014d5761014c610089565b5b600061015b868287016100e9565b935050602061016c8682870161011f565b925050604061017d8682870161011f565b9150509250925092565b6105de806101966000396000f3fe6080604052600436106100385760003560e01c80632986c0e5146102505780633c8da5881461027b57806383d12eef146102a657610241565b36610241576000543414610081576040517f08c379a000000000000000000000000000000000000000000000000000000000815260040161007890610366565b60405180910390fd5b6000600154146100c6576040517f08c379a00000000000000000000000000000000000000000000000000000000081526004016100bd906103d2565b60405180910390fd5b34600160008282546100d8919061042b565b925050819055506000600360009054906101000a900473ffffffffffffffffffffffffffffffffffffffff1673ffffffffffffffffffffffffffffffffffffffff163460025460405160240161012e9190610490565b6040516020818303038152906040527f800fb83f000000000000000000000000000000000000000000000000000000007bffffffffffffffffffffffffffffffffffffffffffffffffffffffff19166020820180517bffffffffffffffffffffffffffffffffffffffffffffffffffffffff83818316178352505050506040516101b89190610525565b60006040518083038185875af1925050503d80600081146101f5576040519150601f19603f3d011682016040523d82523d6000602084013e6101fa565b606091505b505090508061023e576040517f08c379a000000000000000000000000000000000000000000000000000000000815260040161023590610588565b60405180910390fd5b50005b34801561024d57600080fd5b50005b34801561025c57600080fd5b506102656102d1565b6040516102729190610490565b60405180910390f35b34801561028757600080fd5b506102906102d7565b60405161029d9190610490565b60405180910390f35b3480156102b257600080fd5b506102bb6102dd565b6040516102c89190610490565b60405180910390f35b60025481565b60005481565b60015481565b600082825260208201905092915050565b7f576520646f6e277420737570706f7274207061727469616c207061796d656e7460008201527f7300000000000000000000000000000000000000000000000000000000000000602082015250565b60006103506021836102e3565b915061035b826102f4565b604082019050919050565b6000602082019050818103600083015261037f81610343565b9050919050565b7f4974656d20697320616c72656164792070616964210000000000000000000000600082015250565b60006103bc6015836102e3565b91506103c782610386565b602082019050919050565b600060208201905081810360008301526103eb816103af565b9050919050565b6000819050919050565b7f4e487b7100000000000000000000000000000000000000000000000000000000600052601160045260246000fd5b6000610436826103f2565b9150610441836103f2565b9250827fffffffffffffffffffffffffffffffffffffffffffffffffffffffffffffffff03821115610476576104756103fc565b5b828201905092915050565b61048a816103f2565b82525050565b60006020820190506104a56000830184610481565b92915050565b600081519050919050565b600081905092915050565b60005b838110156104df5780820151818401526020810190506104c4565b838111156104ee576000848401525b50505050565b60006104ff826104ab565b61050981856104b6565b93506105198185602086016104c1565b80840191505092915050565b600061053182846104f4565b915081905092915050565b7f44656c697665727920646964206e6f7420776f726b0000000000000000000000600082015250565b60006105726015836102e3565b915061057d8261053c565b602082019050919050565b600060208201905081810360008301526105a181610565565b905091905056fea26469706673582212206781ef1ee9fced7bc4e514eda8321befc56ea5a9aef9a2541b46e7dd9cbcf99164736f6c634300080b0033a2646970667358221220401d80d502133ff75a6caff12184354e459e21e4cb318ab53f75a6351f2feb2364736f6c634300080b0033",
  "immutableReferences": {},
  "source": "// SPDX-License-Identifier: MIT\r\npragma solidity ^0.8.11;\r\n\r\nimport \"./Item.sol\";\r\nimport \"./Ownable.sol\";\r\n\r\ncontract ItemManager is Ownable{\r\n    struct S_Item {\r\n        Item _item;\r\n        ItemManager.SupplyChainSteps _step;\r\n        string _identifier;\r\n        uint itemPrice;\r\n    }\r\n    mapping(uint => S_Item) public items;\r\n    uint index;\r\n    enum SupplyChainSteps {Created, Paid, Delivered}\r\n    event SupplyChainStep(uint _itemIndex, uint _step, address _address);\r\n\r\n    function createItem(string memory _identifier, uint _priceInWei) public onlyOwner{\r\n        Item item = new Item(this, _priceInWei, index);\r\n        items[index]._item = item;\r\n        items[index].itemPrice = _priceInWei;\r\n        items[index]._step = SupplyChainSteps.Created;\r\n        items[index]._identifier = _identifier;\r\n        emit SupplyChainStep(index, uint(items[index]._step), address(item));\r\n        index++;\r\n    }\r\n\r\n    function triggerPayment(uint _index) public payable {\r\n        Item item = items[_index]._item;\r\n        require(address(item) == msg.sender, \"Only items are allowed to update themselves\");\r\n        require(item.priceInWei() == msg.value, \"Not fully paid yet\");\r\n        require(items[index]._step == SupplyChainSteps.Created, \"Item is further in the supply chain\");\r\n        items[_index]._step = SupplyChainSteps.Paid;\r\n        emit SupplyChainStep(_index, uint(items[_index]._step), address(item));\r\n    }\r\n\r\n    function triggerDelivery(uint _index) public onlyOwner{\r\n        require(items[_index]._step == SupplyChainSteps.Paid, \"Item is further in the supply chain\");\r\n        items[_index]._step = SupplyChainSteps.Delivered;\r\n        emit SupplyChainStep(_index, uint(items[_index]._step), address(items[_index]._item));\r\n    }\r\n}",
  "sourcePath": "C:\\Users\\SAMRUTHKUMAR\\Desktop\\Truffle\\contracts\\ItemManager.sol",
  "compiler": {
    "name": "solc",
    "version": "0.8.11+commit.d7f03943.Emscripten.clang"
  },
  "schemaVersion": "3.4.4",
  "updatedAt": "2022-01-27T09:20:07.155Z",
  "networkType": "ethereum",
  "devdoc": {
    "kind": "dev",
    "methods": {
      "isOwner()": {
        "details": "Returns true if the caller is the current owner."
      }
    },
    "version": 1
  },
  "userdoc": {
    "kind": "user",
    "methods": {},
    "version": 1
  }
}